{
  "abi": [
    {
      "inputs": [
        {
          "internalType": "address",
          "name": "token_",
          "type": "address"
        }
      ],
      "stateMutability": "payable",
      "type": "constructor"
    },
    {
      "anonymous": false,
      "inputs": [
        {
          "indexed": false,
          "internalType": "address",
          "name": "owner",
          "type": "address"
        },
        {
          "indexed": false,
          "internalType": "address",
          "name": "nftAddress",
          "type": "address"
        },
        {
          "indexed": false,
          "internalType": "uint256",
          "name": "tokenId",
          "type": "uint256"
        },
        {
          "indexed": false,
          "internalType": "address",
          "name": "to",
          "type": "address"
        },
        {
          "indexed": false,
          "internalType": "uint256",
          "name": "chainId",
          "type": "uint256"
        }
      ],
      "name": "Deposit",
      "type": "event"
    },
    {
      "anonymous": false,
      "inputs": [
        {
          "indexed": true,
          "internalType": "address",
          "name": "previousOwner",
          "type": "address"
        },
        {
          "indexed": true,
          "internalType": "address",
          "name": "newOwner",
          "type": "address"
        }
      ],
      "name": "OwnershipTransferred",
      "type": "event"
    },
    {
      "inputs": [
        {
          "internalType": "address",
          "name": "nftAddress",
          "type": "address"
        },
        {
          "internalType": "uint256",
          "name": "tokenId",
          "type": "uint256"
        },
        {
          "internalType": "address",
          "name": "to",
          "type": "address"
        },
        {
          "internalType": "uint256",
          "name": "chainId",
          "type": "uint256"
        }
      ],
      "name": "BridgeNFT",
      "outputs": [],
      "stateMutability": "nonpayable",
      "type": "function"
    },
    {
      "inputs": [
        {
          "internalType": "address",
          "name": "operator",
          "type": "address"
        },
        {
          "internalType": "address",
          "name": "from",
          "type": "address"
        },
        {
          "internalType": "uint256",
          "name": "tokenId",
          "type": "uint256"
        },
        {
          "internalType": "bytes",
          "name": "data",
          "type": "bytes"
        }
      ],
      "name": "onERC721Received",
      "outputs": [
        {
          "internalType": "bytes4",
          "name": "",
          "type": "bytes4"
        }
      ],
      "stateMutability": "pure",
      "type": "function"
    },
    {
      "inputs": [],
      "name": "owner",
      "outputs": [
        {
          "internalType": "address",
          "name": "",
          "type": "address"
        }
      ],
      "stateMutability": "view",
      "type": "function"
    },
    {
      "inputs": [
        {
          "internalType": "address",
          "name": "",
          "type": "address"
        }
      ],
      "name": "owners",
      "outputs": [
        {
          "internalType": "address",
          "name": "owner",
          "type": "address"
        },
        {
          "internalType": "address",
          "name": "token",
          "type": "address"
        },
        {
          "internalType": "uint256",
          "name": "tokenId",
          "type": "uint256"
        },
        {
          "internalType": "address",
          "name": "receiver",
          "type": "address"
        },
        {
          "internalType": "uint256",
          "name": "chainId",
          "type": "uint256"
        }
      ],
      "stateMutability": "view",
      "type": "function"
    },
    {
      "inputs": [],
      "name": "renounceOwnership",
      "outputs": [],
      "stateMutability": "nonpayable",
      "type": "function"
    },
    {
      "inputs": [
        {
          "internalType": "address",
          "name": "to",
          "type": "address"
        },
        {
          "internalType": "uint256",
          "name": "tokenId",
          "type": "uint256"
        }
      ],
      "name": "transfer",
      "outputs": [],
      "stateMutability": "nonpayable",
      "type": "function"
    },
    {
      "inputs": [
        {
          "internalType": "address",
          "name": "newOwner",
          "type": "address"
        }
      ],
      "name": "transferOwnership",
      "outputs": [],
      "stateMutability": "nonpayable",
      "type": "function"
    }
  ],
  "bytecode": {
    "object": "0x608060405260405161070a38038061070a833981016040819052610022916100a0565b61002b33610050565b600180546001600160a01b0319166001600160a01b03929092169190911790556100d0565b600080546001600160a01b038381166001600160a01b0319831681178455604051919092169283917f8be0079c531659141344cd1fd0a4f28419497f9722a3daafe3b4186f6b6457e09190a35050565b6000602082840312156100b257600080fd5b81516001600160a01b03811681146100c957600080fd5b9392505050565b61062b806100df6000396000f3fe608060405234801561001057600080fd5b506004361061007d5760003560e01c80638da5cb5b1161005b5780638da5cb5b1461014d578063a9059cbb14610168578063e3466dac1461017b578063f2fde38b1461018e57600080fd5b8063022914a714610082578063150b7a021461010b578063715018a614610143575b600080fd5b6100cf6100903660046104ca565b6002602081905260009182526040909120805460018201549282015460038301546004909301546001600160a01b039283169483169391929091169085565b604080516001600160a01b03968716815294861660208601528401929092529092166060820152608081019190915260a0015b60405180910390f35b61012a6101193660046104ec565b630a85bd0160e11b95945050505050565b6040516001600160e01b03199091168152602001610102565b61014b6101a1565b005b6000546040516001600160a01b039091168152602001610102565b61014b610176366004610587565b6101b5565b61014b6101893660046105b1565b610225565b61014b61019c3660046104ca565b610386565b6101a9610404565b6101b3600061045e565b565b600154604051632142170760e11b81523060048201526001600160a01b03848116602483015260448201849052909116906342842e0e90606401600060405180830381600087803b15801561020957600080fd5b505af115801561021d573d6000803e3d6000fd5b505050505050565b61022d610404565b6040805160a081018252338082526001600160a01b0387811660208401528284018790528581166060840152608083018590526001549351632142170760e11b81526004810192909252306024830152604482018790529192909116906342842e0e90606401600060405180830381600087803b1580156102ad57600080fd5b505af11580156102c1573d6000803e3d6000fd5b505033600090815260026020818152604092839020865181546001600160a01b03199081166001600160a01b03928316908117845589850151600185018054841691851691821790558a8801519685018790556060808c015160038701805490951695169485179093556080808c01516004909601869055885192835295820152808701959095528401529082015290517faaefaf378e10f40556b2167ea878af7e62d89229b0bce3924630aabf1ee611ff93509081900360a0019150a15050505050565b61038e610404565b6001600160a01b0381166103f85760405162461bcd60e51b815260206004820152602660248201527f4f776e61626c653a206e6577206f776e657220697320746865207a65726f206160448201526564647265737360d01b60648201526084015b60405180910390fd5b6104018161045e565b50565b6000546001600160a01b031633146101b35760405162461bcd60e51b815260206004820181905260248201527f4f776e61626c653a2063616c6c6572206973206e6f7420746865206f776e657260448201526064016103ef565b600080546001600160a01b038381166001600160a01b0319831681178455604051919092169283917f8be0079c531659141344cd1fd0a4f28419497f9722a3daafe3b4186f6b6457e09190a35050565b80356001600160a01b03811681146104c557600080fd5b919050565b6000602082840312156104dc57600080fd5b6104e5826104ae565b9392505050565b60008060008060006080868803121561050457600080fd5b61050d866104ae565b945061051b602087016104ae565b935060408601359250606086013567ffffffffffffffff8082111561053f57600080fd5b818801915088601f83011261055357600080fd5b81358181111561056257600080fd5b89602082850101111561057457600080fd5b9699959850939650602001949392505050565b6000806040838503121561059a57600080fd5b6105a3836104ae565b946020939093013593505050565b600080600080608085870312156105c757600080fd5b6105d0856104ae565b9350602085013592506105e5604086016104ae565b939692955092936060013592505056fea264697066735822122055172359e7653815276a00989ab6c0c6778a01ab412b2d6928db5cd9e508ac9564736f6c63430008130033",
    "linkReferences": {}
  },
  "methodIdentifiers": {
    "BridgeNFT(address,uint256,address,uint256)": "e3466dac",
    "onERC721Received(address,address,uint256,bytes)": "150b7a02",
    "owner()": "8da5cb5b",
    "owners(address)": "022914a7",
    "renounceOwnership()": "715018a6",
    "transfer(address,uint256)": "a9059cbb",
    "transferOwnership(address)": "f2fde38b"
  },
  "id": 0
}